:0400000007EF00F016
:0A00080077820BED08F020EF0AF0FC
:10100000003738392F3435362A3132332D23303DED
:051010002B2569000022
:101016000600FACF69F0FBCF6AF09DAC15EF08F039
:1010260017EF08F020EF08F09EAC1CEF08F01EEF5B
:1010360008F020EF08F0F7EC0AF0F2AA25EF08F026
:1010460027EF08F030EF08F0F2A42CEF08F02EEFAF
:1010560008F030EF08F0DFEC0AF09DA035EF08F05D
:1010660037EF08F040EF08F09EA03CEF08F03EEFA7
:1010760008F040EF08F0D9EC0AF09DA245EF08F021
:1010860047EF08F050EF08F09EA24CEF08F04EEF45
:1010960008F050EF08F0E5EC0AF0A0A255EF08F0D2
:1010A60057EF08F060EF08F0A1A25CEF08F05EEFE2
:1010B60008F060EF08F0D3EC0AF09DA465EF08F0A5
:1010C60067EF08F070EF08F09EA46CEF08F06EEF83
:1010D60008F070EF08F0F5EC0AF0A0A075EF08F044
:1010E60077EF08F080EF08F0A1A07CEF08F07EEF24
:1010F60008F080EF08F0F3EC0AF09DA885EF08F001
:1011060087EF08F090EF08F09EA88CEF08F08EEFBE
:1011160008F090EF08F0F1EC0AF09DAA95EF08F0C0
:1011260097EF08F0A0EF08F09EAA9CEF08F09EEF5C
:1011360008F0A0EF08F0FAEC0AF09DA6A5EF08F07B
:10114600A7EF08F0B0EF08F09EA6ACEF08F0AEEF00
:1011560008F0B0EF08F051EC0AF0A0A6B5EF08F0E1
:10116600B7EF08F0C0EF08F0A1A6BCEF08F0BEEF9D
:1011760008F0C0EF08F0E9EC0AF0F2A8C5EF08F0B5
:10118600C7EF08F0D0EF08F0F2A2CCEF08F0CEEFF0
:1011960008F0D0EF08F0EFEC0AF0F0B6D5EF08F063
:1011A600D8EF08F0010ED9EF08F0000E686EF0B027
:1011B600DFEF08F0E2EF08F0010EE3EF08F0000EB3
:1011C600681AD8A4E9EF08F0EBEF08F0EDEF08F0A5
:1011D600EDEC0AF0F0B8F2EF08F0F5EF08F0010ECA
:1011E600F6EF08F0000E686EF0B2FCEF08F0FFEFC5
:1011F60008F0010E00EF09F0000E681AD8A406EFF9
:1012060009F008EF09F00AEF09F0EBEC0AF0F2A694
:101216000FEF09F011EF09F02CEF09F0F2A016EF2D
:1012260009F018EF09F02CEF09F081A81DEF09F07D
:101236001FEF09F02CEF09F06004D8A425EF09F0A0
:1012460027EF09F02CEF09F0000E606E010EBCECE2
:101256000AF0F2A631EF09F033EF09F04EEF09F08C
:10126600F2A038EF09F03AEF09F04EEF09F081B835
:101276003FEF09F041EF09F04EEF09F06050D8A4B6
:1012860047EF09F049EF09F04EEF09F0010E606EE5
:10129600000EBCEC0AF0F2A653EF09F055EF09F088
:1012A60070EF09F0F2A05AEF09F05CEF09F070EF69
:1012B60009F081AA61EF09F063EF09F070EF09F018
:1012C6005F04D8A469EF09F06BEF09F070EF09F03D
:1012D600000E5F6E010EAFEC0AF0F2A675EF09F094
:1012E60077EF09F092EF09F0F2A07CEF09F07EEFBC
:1012F60009F092EF09F081BA83EF09F085EF09F062
:1013060092EF09F05F50D8A48BEF09F08DEF09F04A
:1013160092EF09F0010E5F6E000EAFEC0AF0F2A636
:1013260097EF09F099EF09F0B4EF09F0F2A09EEFFC
:1013360009F0A0EF09F0B4EF09F081ACA5EF09F0D0
:10134600A7EF09F0B4EF09F05E04D8A4ADEF09F0F9
:10135600AFEF09F0B4EF09F0000E5E6E010EA2ECDD
:101366000AF0F2A6B9EF09F0BBEF09F0D6EF09F0E3
:10137600F2A0C0EF09F0C2EF09F0D6EF09F081BC88
:10138600C7EF09F0C9EF09F0D6EF09F05E50D8A40F
:10139600CFEF09F0D1EF09F0D6EF09F0010E5E6E3E
:1013A600000EA2EC0AF0F2A6DBEF09F0DDEF09F081
:1013B600F8EF09F0F2A0E2EF09F0E4EF09F0F8EF38
:1013C60009F081AEE9EF09F0EBEF09F0F8EF09F06B
:1013D6005D04D8A4F1EF09F0F3EF09F0F8EF09F096
:1013E600000E5D6E010E95EC0AF0F2A6FDEF09F017
:1013F600FFEF09F01AEF0AF0F2A004EF0AF006EF89
:101406000AF01AEF0AF081BE0BEF0AF00DEF0AF0B0
:101416001AEF0AF05D50D8A413EF0AF015EF0AF0A0
:101426001AEF0AF0010E5D6E000E95EC0AF06AC026
:10143600FBFF69C0FAFF77921100D00EF66E140E0C
:10144600F76E000EF86E00EE80F010EE21F0090047
:10145600F5CFEEFFE550E150FAE1F10EF66E140E0F
:10146600F76E000EF86E00EE49F010EE1EF0090061
:10147600F5CFEEFFE550E150FAE100EEA1F0180ECF
:10148600EE6AE806FDE100EE01F0480EEE6AE806B7
:10149600FDE177907792000188EF0AF09E9637502B
:1014A6003810D8B459EF0AF05BEF0AF067EF0AF08C
:1014B60002D867EF0AF00500FA6E3750FD6E385015
:1014C600FE6EFF6AFA50120012000000F2150000CC
:1014D6000000000006D002800F810F820F830F8468
:1014E6000F323A030B131B232B333B890F8A0F8BC7
:1014F6000F8C0F8D0F920F930F940F950F960F0170
:09150600010101020A121A222A55
:10151000C9EC0AF020EEADF00B0EEBCFDBFFE806D6
:10152000FCE288EF0AF007EF00F0676EF290675078
:10153000D8A49DEF0AF09FEF0AF0A1EF0AF0A1EF07
:101540000AF01200676EF2906750D8A4AAEF0AF072
:10155000ACEF0AF0AEEF0AF0AEEF0AF01200676EE1
:10156000F2906750D8A4B7EF0AF0B9EF0AF0BBEFDA
:101570000AF0BBEF0AF01200676EF2906750D8A431
:10158000C4EF0AF0C6EF0AF0C8EF0AF0C8EF0AF09D
:10159000120020EEA1F000EE6BF00B0EDBCFEBFFA4
:1015A000E806FCE21200A1921050B36E0FC0B2FF29
:1015B00012009E901650CF6E15C0CEFF1200F2940E
:1015C0001A50D76E19C0D6FF12009E9241C0CCFFB0
:1015D0001200A1961200F0921200F0901200F29206
:1015E00012009D981200A19012009E9412009E90ED
:0615F000120012001200BF
:020000040030CA
:0E000000FF02091EFF8181FF0FC00FE00F40BD
:00000001FF
